:020000040000FA
:10000000F26A926A936A946A956A966A0F0EC16E52
:10001000896A8A6A8B6A8C6A8D6A010E8D6E94EC8D
:1000200000F0D8908D4694EC00F08D6A010E896E38
:1000300094EC00F0D890894694EC00F0D890894672
:1000400094EC00F0D890894694EC00F0D890894662
:1000500094EC00F0D890894694EC00F0896A010E87
:100060008A6E94EC00F0D8908A4694EC00F0D89018
:100070008A4694EC00F0D8908A4694EC00F0D89030
:100080008A4694EC00F0D8908A4694EC00F0D89020
:100090008A4694EC00F0D8908A4694EC00F08A6A84
:1000A000010E8B6E94EC00F0D8908B4694EC00F02F
:1000B000D8908B4694EC00F0D8908B4694EC00F0EE
:1000C000D8908B4694EC00F0D8908B4694EC00F0DE
:1000D000D8908B4694EC00F0D8908B4694EC00F0CE
:1000E0008B6A010E8C6E94EC00F0D8908C4694ECE8
:1000F00000F0D8908C4694EC00F0D8908C4694ECAC
:1001000000F0D8908C4694EC00F0D8908C4694EC9B
:1001100000F0D8908C4694EC00F0D8908C4694EC8B
:1001200000F08C6A0DEF00F0706A716A702E96EF25
:0A01300000F0712E96EF00F01200AF
:020000040030CA
:03000100021F1EBD
:020005008181F7
:060008000FC00FE00F40E5
:00000001FF
